:03000000020026D5
:0C002600787FE4F6D8FD75810F02006DB4
:1001CF00323030303035303800B4EFC6D5B4F2D3DA
:0301DF00A14450E8
:1001BC00759850758920758BFD758DFDD28ED2ACDE
:0301CC00D2AF228D
:0B020E00E50C70FCEF750C01F5992267
:100170001201BC7BFF7A0179CF1200B21201A812E2
:1001800001E27BFF7A0179D87D0A1201461200193B
:0201900080FEEF
:03002300020200D6
:0E020000309802C298309905C299750C0032F0
:03021900010F00D2
:1000B200120100643270469000011201196430701E
:1000C2003C90000212011964317032900003120157
:1000D20019643270289000041201196430701E9065
:1000E2000005120119B43515900006120119B43039
:0E00F2000C900007120119B43803750F01229B
:0A001900E50F60057F0A12020E22B7
:100146008B088A09890A8D0BE50F601DE50B60197E
:10015600AB08050AE50AAA097002050914F9120195
:0A01660000FF12020E150B80E322C9
:1001A800E50F600FE4FF12020E7F1B12020E7F4064
:0401B80012020E22FF
:100003008F0DE50F600F7F1B12020E7F4A12020E47
:06001300AF0D12020E22E7
:100192008F0EE50F600F7F1C12020E7F2112020EDE
:0601A200AF0E12020E2256
:0F01E200E50F600A7F1C12020E7F2612020E220A
:0F01F100E50F600A7F1C12020E7F2E12020E22F3
:10003200020170E493A3F8E493A34003F68001F273
:1000420008DFF48029E493A3F85407240CC8C333CF
:10005200C4540F4420C8834004F456800146F6DF9E
:10006200E4800B0102040810204080900219E47E13
:10007200019360BCA3FF543F30E509541FFEE49393
:10008200A360010ECF54C025E060A840B8E493A35A
:10009200FAE493A3F8E493A3C8C582C8CAC583CA85
:1000A200F0A3C8C582C8CAC583CADFE9DEE780BE3D
:01021C0000E1
:10010000BB010689828A83E0225002E722BBFE02FD
:09011000E32289828A83E4932230
:10011900BB010CE58229F582E5833AF583E022509B
:1001290006E92582F8E622BBFE06E92582F8E222E5
:0D013900E58229F582E5833AF583E49322FF
:00000001FF
